{
  "_format": "hh-sol-artifact-1",
  "contractName": "RahatDonor",
  "sourceName": "src/contracts/RahatDonor.sol",
  "abi": [
    {
      "inputs": [
        {
          "internalType": "address",
          "name": "_admin",
          "type": "address"
        }
      ],
      "stateMutability": "nonpayable",
      "type": "constructor"
    },
    {
      "inputs": [
        {
          "internalType": "address",
          "name": "target",
          "type": "address"
        }
      ],
      "name": "AddressEmptyCode",
      "type": "error"
    },
    {
      "inputs": [],
      "name": "FailedInnerCall",
      "type": "error"
    },
    {
      "anonymous": false,
      "inputs": [
        {
          "indexed": true,
          "internalType": "address",
          "name": "",
          "type": "address"
        }
      ],
      "name": "OwnerAdded",
      "type": "event"
    },
    {
      "anonymous": false,
      "inputs": [
        {
          "indexed": true,
          "internalType": "address",
          "name": "",
          "type": "address"
        }
      ],
      "name": "OwnerRemoved",
      "type": "event"
    },
    {
      "anonymous": false,
      "inputs": [
        {
          "indexed": true,
          "internalType": "address",
          "name": "tokenAddress",
          "type": "address"
        }
      ],
      "name": "TokenCreated",
      "type": "event"
    },
    {
      "anonymous": false,
      "inputs": [
        {
          "indexed": true,
          "internalType": "address",
          "name": "tokenAddress",
          "type": "address"
        },
        {
          "indexed": true,
          "internalType": "address",
          "name": "approveAddress",
          "type": "address"
        },
        {
          "indexed": false,
          "internalType": "uint256",
          "name": "amount",
          "type": "uint256"
        }
      ],
      "name": "TokenMintedAndApproved",
      "type": "event"
    },
    {
      "inputs": [],
      "name": "IID_RAHAT_DONOR",
      "outputs": [
        {
          "internalType": "bytes4",
          "name": "",
          "type": "bytes4"
        }
      ],
      "stateMutability": "view",
      "type": "function"
    },
    {
      "inputs": [
        {
          "internalType": "address",
          "name": "",
          "type": "address"
        }
      ],
      "name": "_registeredProject",
      "outputs": [
        {
          "internalType": "bool",
          "name": "",
          "type": "bool"
        }
      ],
      "stateMutability": "view",
      "type": "function"
    },
    {
      "inputs": [
        {
          "internalType": "address",
          "name": "_address",
          "type": "address"
        }
      ],
      "name": "addOwner",
      "outputs": [
        {
          "internalType": "bool",
          "name": "success",
          "type": "bool"
        }
      ],
      "stateMutability": "nonpayable",
      "type": "function"
    },
    {
      "inputs": [
        {
          "internalType": "address",
          "name": "_token",
          "type": "address"
        },
        {
          "internalType": "address",
          "name": "_ownerAddress",
          "type": "address"
        }
      ],
      "name": "addTokenOwner",
      "outputs": [],
      "stateMutability": "nonpayable",
      "type": "function"
    },
    {
      "inputs": [
        {
          "internalType": "address",
          "name": "_token",
          "type": "address"
        },
        {
          "internalType": "address",
          "name": "_spender",
          "type": "address"
        },
        {
          "internalType": "uint256",
          "name": "_amount",
          "type": "uint256"
        }
      ],
      "name": "approveToken",
      "outputs": [],
      "stateMutability": "nonpayable",
      "type": "function"
    },
    {
      "inputs": [
        {
          "internalType": "address",
          "name": "_token",
          "type": "address"
        },
        {
          "internalType": "address",
          "name": "_from",
          "type": "address"
        },
        {
          "internalType": "uint256",
          "name": "_amount",
          "type": "uint256"
        }
      ],
      "name": "claimToken",
      "outputs": [],
      "stateMutability": "nonpayable",
      "type": "function"
    },
    {
      "inputs": [
        {
          "internalType": "string",
          "name": "_name",
          "type": "string"
        },
        {
          "internalType": "string",
          "name": "_symbol",
          "type": "string"
        },
        {
          "internalType": "uint8",
          "name": "decimals",
          "type": "uint8"
        }
      ],
      "name": "createToken",
      "outputs": [
        {
          "internalType": "address",
          "name": "",
          "type": "address"
        }
      ],
      "stateMutability": "nonpayable",
      "type": "function"
    },
    {
      "inputs": [
        {
          "internalType": "address",
          "name": "_token",
          "type": "address"
        },
        {
          "internalType": "address",
          "name": "_from",
          "type": "address"
        }
      ],
      "name": "getAllowanceAndBalance",
      "outputs": [
        {
          "internalType": "uint256",
          "name": "allowance",
          "type": "uint256"
        },
        {
          "internalType": "uint256",
          "name": "balance",
          "type": "uint256"
        }
      ],
      "stateMutability": "view",
      "type": "function"
    },
    {
      "inputs": [
        {
          "internalType": "address",
          "name": "_address",
          "type": "address"
        }
      ],
      "name": "isOwner",
      "outputs": [
        {
          "internalType": "bool",
          "name": "",
          "type": "bool"
        }
      ],
      "stateMutability": "view",
      "type": "function"
    },
    {
      "inputs": [],
      "name": "listOwners",
      "outputs": [
        {
          "internalType": "address[]",
          "name": "",
          "type": "address[]"
        }
      ],
      "stateMutability": "view",
      "type": "function"
    },
    {
      "inputs": [
        {
          "internalType": "address",
          "name": "_token",
          "type": "address"
        },
        {
          "internalType": "uint256",
          "name": "_amount",
          "type": "uint256"
        }
      ],
      "name": "mintToken",
      "outputs": [],
      "stateMutability": "nonpayable",
      "type": "function"
    },
    {
      "inputs": [
        {
          "internalType": "address",
          "name": "_token",
          "type": "address"
        },
        {
          "internalType": "address",
          "name": "_approveAddress",
          "type": "address"
        },
        {
          "internalType": "uint256",
          "name": "_amount",
          "type": "uint256"
        },
        {
          "internalType": "address",
          "name": "_projectAddress",
          "type": "address"
        }
      ],
      "name": "mintTokenAndApprove",
      "outputs": [],
      "stateMutability": "nonpayable",
      "type": "function"
    },
    {
      "inputs": [
        {
          "internalType": "bytes[]",
          "name": "data",
          "type": "bytes[]"
        }
      ],
      "name": "multicall",
      "outputs": [
        {
          "internalType": "bytes[]",
          "name": "results",
          "type": "bytes[]"
        }
      ],
      "stateMutability": "nonpayable",
      "type": "function"
    },
    {
      "inputs": [],
      "name": "ownerCount",
      "outputs": [
        {
          "internalType": "uint256",
          "name": "",
          "type": "uint256"
        }
      ],
      "stateMutability": "view",
      "type": "function"
    },
    {
      "inputs": [
        {
          "internalType": "address",
          "name": "_projectAddress",
          "type": "address"
        },
        {
          "internalType": "bool",
          "name": "status",
          "type": "bool"
        }
      ],
      "name": "registerProject",
      "outputs": [],
      "stateMutability": "nonpayable",
      "type": "function"
    },
    {
      "inputs": [
        {
          "internalType": "address",
          "name": "_address",
          "type": "address"
        }
      ],
      "name": "removeOwner",
      "outputs": [
        {
          "internalType": "bool",
          "name": "success",
          "type": "bool"
        }
      ],
      "stateMutability": "nonpayable",
      "type": "function"
    },
    {
      "inputs": [
        {
          "internalType": "bytes4",
          "name": "interfaceId",
          "type": "bytes4"
        }
      ],
      "name": "supportsInterface",
      "outputs": [
        {
          "internalType": "bool",
          "name": "",
          "type": "bool"
        }
      ],
      "stateMutability": "view",
      "type": "function"
    },
    {
      "inputs": [
        {
          "internalType": "address",
          "name": "_token",
          "type": "address"
        },
        {
          "internalType": "address",
          "name": "_from",
          "type": "address"
        },
        {
          "internalType": "address",
          "name": "_to",
          "type": "address"
        },
        {
          "internalType": "uint256",
          "name": "_amount",
          "type": "uint256"
        }
      ],
      "name": "transferFromToken",
      "outputs": [],
      "stateMutability": "nonpayable",
      "type": "function"
    },
    {
      "inputs": [
        {
          "internalType": "address",
          "name": "_token",
          "type": "address"
        },
        {
          "internalType": "address",
          "name": "_to",
          "type": "address"
        },
        {
          "internalType": "uint256",
          "name": "_amount",
          "type": "uint256"
        }
      ],
      "name": "transferToken",
      "outputs": [],
      "stateMutability": "nonpayable",
      "type": "function"
    }
  ],
  "bytecode": "0x608060405260326000553480156200001657600080fd5b5060405162002fac38038062002fac83398101604081905262000039916200016b565b62000044816200004c565b505062000196565b600080546200005c6001620000ea565b1115620000a15760405162461bcd60e51b815260206004820152600f60248201526e1bdddb995c9cc8195e18d959591959608a1b604482015260640160405180910390fd5b620000ae600183620000fb565b6040519091506001600160a01b038316907f994a936646fe87ffe4f1e469d3d6aa417d6b855598397f323de5b449f765f0c390600090a2919050565b6000620000f5825490565b92915050565b600062000112836001600160a01b03841662000119565b9392505050565b60008181526001830160205260408120546200016257508154600181810184556000848152602080822090930184905584548482528286019093526040902091909155620000f5565b506000620000f5565b6000602082840312156200017e57600080fd5b81516001600160a01b03811681146200011257600080fd5b612e0680620001a66000396000f3fe60806040523480156200001157600080fd5b5060043610620001395760003560e01c806379c6506811620000bb578063da3e3397116200007a578063da3e33971462000304578063e8a0aed3146200031b578063ed60c0fc146200034b578063f5537ede1462000364578063fb3c0d70146200037b57600080fd5b806379c65068146200023c5780639a7b612a1462000253578063a80f5612146200027c578063ac9650d814620002a2578063d293cf2514620002c857600080fd5b80632a92967a11620001085780632a92967a14620001b35780632cb5568e14620001ca5780632f54bf6e14620001e15780634937b17414620001f85780637065cb48146200022557600080fd5b806301ffc9a7146200013e5780630db02622146200016a578063125bfb661462000183578063173825d9146200019c575b600080fd5b620001556200014f366004620011bf565b62000392565b60405190151581526020015b60405180910390f35b62000174620003ca565b60405190815260200162000161565b6200019a6200019436600462001203565b620003dd565b005b62000155620001ad36600462001244565b62000495565b6200019a620001c436600462001262565b6200050c565b6200019a620001db366004620012b6565b62000830565b62000155620001f236600462001244565b620008d0565b6200020f62000209366004620012b6565b620008df565b6040805192835260208301919091520162000161565b620001556200023636600462001244565b620009ce565b6200019a6200024d366004620012e5565b62000a0c565b6200026263612d4d5d60e11b81565b6040516001600160e01b0319909116815260200162000161565b620001556200028d36600462001244565b60036020526000908152604090205460ff1681565b620002b9620002b336600462001312565b62000aac565b604051620001619190620013e0565b6200019a620002d936600462001455565b6001600160a01b03919091166000908152600360205260409020805460ff1916911515919091179055565b6200019a6200031536600462001203565b62000bb4565b620003326200032c3660046200153c565b62000c16565b6040516001600160a01b03909116815260200162000161565b6200035562000cc9565b604051620001619190620015c2565b6200019a6200037536600462001203565b62000cd7565b6200019a6200038c36600462001611565b62000d39565b60006001600160e01b0319821663612d4d5d60e11b1480620003c457506301ffc9a760e01b6001600160e01b03198316145b92915050565b6000620003d8600162000dea565b905090565b620003ea60013362000df5565b620004125760405162461bcd60e51b8152600401620004099062001663565b60405180910390fd5b6040516323b872dd60e01b81526001600160a01b038381166004830152306024830152604482018390528416906323b872dd906064015b6020604051808303816000875af115801562000469573d6000803e3d6000fd5b505050506040513d601f19601f820116820180604052508101906200048f9190620016aa565b50505050565b6000620004a460013362000df5565b620004c35760405162461bcd60e51b8152600401620004099062001663565b620004d060018362000e18565b6040519091506001600160a01b038316907f58619076adf5bb0943d100ef88d52d7c3fd691b19d3a9071b555b651fbf418da90600090a2919050565b6200051960013362000df5565b620005385760405162461bcd60e51b8152600401620004099062001663565b6001600160a01b038416620005905760405162461bcd60e51b815260206004820152601c60248201527f746f6b656e20616464726573732063616e6e6f74206265207a65726f00000000604482015260640162000409565b6001600160a01b038316620005e85760405162461bcd60e51b815260206004820152601e60248201527f617070726f766520616464726573732063616e6e6f74206265207a65726f0000604482015260640162000409565b6001600160a01b038116620006405760405162461bcd60e51b815260206004820152601e60248201527f617070726f766520616464726573732063616e6e6f74206265207a65726f0000604482015260640162000409565b6001600160a01b03811660009081526003602052604090205460ff16620006a35760405162461bcd60e51b81526020600482015260166024820152751c1c9bda9958dd081b9bdd081c9959da5cdd195c995960521b604482015260640162000409565b60008211620006ed5760405162461bcd60e51b8152602060048201526015602482015274616d6f756e742063616e6e6f74206265207a65726f60581b604482015260640162000409565b6040516340c10f1960e01b81523060048201526024810183905284906001600160a01b038216906340c10f19906044016020604051808303816000875af11580156200073d573d6000803e3d6000fd5b505050506040513d601f19601f82011682018060405250810190620007639190620016ca565b5060405163095ea7b360e01b81526001600160a01b0385811660048301526024820185905282169063095ea7b3906044016020604051808303816000875af1158015620007b4573d6000803e3d6000fd5b505050506040513d601f19601f82011682018060405250810190620007da9190620016aa565b50836001600160a01b0316856001600160a01b03167fdc6904c4e8e3746f835eb600662c644c895c758995784a4b39c68f75355b2d27856040516200082191815260200190565b60405180910390a35050505050565b6200083d60013362000df5565b6200085c5760405162461bcd60e51b8152600401620004099062001663565b604051630e0cb96960e31b81526001600160a01b038281166004830152831690637065cb48906024016020604051808303816000875af1158015620008a5573d6000803e3d6000fd5b505050506040513d601f19601f82011682018060405250810190620008cb9190620016aa565b505050565b6000620003c460018362000df5565b604051636eb1769f60e11b81526001600160a01b038281166004830152306024830152600091829185169063dd62ed3e90604401602060405180830381865afa15801562000931573d6000803e3d6000fd5b505050506040513d601f19601f82011682018060405250810190620009579190620016ca565b6040516370a0823160e01b81523060048201529092506001600160a01b038516906370a0823190602401602060405180830381865afa1580156200099f573d6000803e3d6000fd5b505050506040513d601f19601f82011682018060405250810190620009c59190620016ca565b90509250929050565b6000620009dd60013362000df5565b620009fc5760405162461bcd60e51b8152600401620004099062001663565b620003c48262000e2f565b919050565b62000a1960013362000df5565b62000a385760405162461bcd60e51b8152600401620004099062001663565b6040516340c10f1960e01b8152306004820152602481018290526001600160a01b038316906340c10f19906044016020604051808303816000875af115801562000a86573d6000803e3d6000fd5b505050506040513d601f19601f82011682018060405250810190620008cb9190620016ca565b6040805160008152602081019091526060908267ffffffffffffffff81111562000ada5762000ada62001491565b60405190808252806020026020018201604052801562000b0f57816020015b606081526020019060019003908162000af95790505b50915060005b8381101562000bac5762000b763086868481811062000b385762000b3862001710565b905060200281019062000b4c919062001726565b8560405160200162000b619392919062001777565b60405160208183030381529060405262000eca565b83828151811062000b8b5762000b8b62001710565b6020026020010181905250808062000ba390620017a0565b91505062000b15565b505092915050565b62000bc160013362000df5565b62000be05760405162461bcd60e51b8152600401620004099062001663565b60405163095ea7b360e01b81526001600160a01b0383811660048301526024820183905284169063095ea7b39060440162000449565b600062000c2560013362000df5565b62000c445760405162461bcd60e51b8152600401620004099062001663565b60008484308560405162000c5890620011b1565b62000c679493929190620017bc565b604051809103906000f08015801562000c84573d6000803e3d6000fd5b5060405190915081906001600160a01b038216907f2e2b3f61b70d2d131b2a807371103cc98d51adcaa5e9a8f9c32658ad8426e74e90600090a29150505b9392505050565b6060620003d8600162000f46565b62000ce460013362000df5565b62000d035760405162461bcd60e51b8152600401620004099062001663565b60405163a9059cbb60e01b81526001600160a01b0383811660048301526024820183905284169063a9059cbb9060440162000449565b62000d4660013362000df5565b62000d655760405162461bcd60e51b8152600401620004099062001663565b6040516323b872dd60e01b81526001600160a01b0384811660048301528381166024830152604482018390528516906323b872dd906064016020604051808303816000875af115801562000dbd573d6000803e3d6000fd5b505050506040513d601f19601f8201168201806040525081019062000de39190620016aa565b5050505050565b6000620003c4825490565b6001600160a01b0381166000908152600183016020526040812054151562000cc2565b600062000cc2836001600160a01b03841662000f55565b6000805462000e3f600162000dea565b111562000e815760405162461bcd60e51b815260206004820152600f60248201526e1bdddb995c9cc8195e18d959591959608a1b604482015260640162000409565b62000e8e60018362001059565b6040519091506001600160a01b038316907f994a936646fe87ffe4f1e469d3d6aa417d6b855598397f323de5b449f765f0c390600090a2919050565b6060600080846001600160a01b03168460405162000ee991906200180a565b600060405180830381855af49150503d806000811462000f26576040519150601f19603f3d011682016040523d82523d6000602084013e62000f2b565b606091505b509150915062000f3d85838362001070565b95945050505050565b6060600062000cc283620010d4565b600081815260018301602052604081205480156200104e57600062000f7c600183620016fa565b855490915060009062000f9290600190620016fa565b905080821462000ffe57600086600001828154811062000fb65762000fb662001710565b906000526020600020015490508087600001848154811062000fdc5762000fdc62001710565b6000918252602080832090910192909255918252600188019052604090208390555b855486908062001012576200101262001828565b600190038181906000526020600020016000905590558560010160008681526020019081526020016000206000905560019350505050620003c4565b6000915050620003c4565b600062000cc2836001600160a01b03841662001132565b6060826200108957620010838262001184565b62000cc2565b8151158015620010a157506001600160a01b0384163b155b15620010cc57604051639996b31560e01b81526001600160a01b038516600482015260240162000409565b508062000cc2565b6060816000018054806020026020016040519081016040528092919081815260200182805480156200112657602002820191906000526020600020905b81548152602001906001019080831162001111575b50505050509050919050565b60008181526001830160205260408120546200117b57508154600181810184556000848152602080822090930184905584548482528286019093526040902091909155620003c4565b506000620003c4565b805115620011955780518082602001fd5b604051630a12f52160e11b815260040160405180910390fd5b50565b611592806200183f83390190565b600060208284031215620011d257600080fd5b81356001600160e01b03198116811462000cc257600080fd5b80356001600160a01b038116811462000a0757600080fd5b6000806000606084860312156200121957600080fd5b6200122484620011eb565b92506200123460208501620011eb565b9150604084013590509250925092565b6000602082840312156200125757600080fd5b62000cc282620011eb565b600080600080608085870312156200127957600080fd5b6200128485620011eb565b93506200129460208601620011eb565b925060408501359150620012ab60608601620011eb565b905092959194509250565b60008060408385031215620012ca57600080fd5b620012d583620011eb565b9150620009c560208401620011eb565b60008060408385031215620012f957600080fd5b6200130483620011eb565b946020939093013593505050565b600080602083850312156200132657600080fd5b823567ffffffffffffffff808211156200133f57600080fd5b818501915085601f8301126200135457600080fd5b8135818111156200136457600080fd5b8660208260051b85010111156200137a57600080fd5b60209290920196919550909350505050565b60005b83811015620013a95781810151838201526020016200138f565b50506000910152565b60008151808452620013cc8160208601602086016200138c565b601f01601f19169290920160200192915050565b6000602080830181845280855180835260408601915060408160051b870101925083870160005b828110156200143957603f1988860301845262001426858351620013b2565b9450928501929085019060010162001407565b5092979650505050505050565b8015158114620011ae57600080fd5b600080604083850312156200146957600080fd5b6200147483620011eb565b91506020830135620014868162001446565b809150509250929050565b634e487b7160e01b600052604160045260246000fd5b600082601f830112620014b957600080fd5b813567ffffffffffffffff80821115620014d757620014d762001491565b604051601f8301601f19908116603f0116810190828211818310171562001502576200150262001491565b816040528381528660208588010111156200151c57600080fd5b836020870160208301376000602085830101528094505050505092915050565b6000806000606084860312156200155257600080fd5b833567ffffffffffffffff808211156200156b57600080fd5b6200157987838801620014a7565b945060208601359150808211156200159057600080fd5b506200159f86828701620014a7565b925050604084013560ff81168114620015b757600080fd5b809150509250925092565b6020808252825182820181905260009190848201906040850190845b81811015620016055783516001600160a01b031683529284019291840191600101620015de565b50909695505050505050565b600080600080608085870312156200162857600080fd5b6200163385620011eb565b93506200164360208601620011eb565b92506200165360408601620011eb565b9396929550929360600135925050565b60208082526027908201527f4f6e6c79206f776e65722063616e20657865637574652074686973207472616e60408201526639b0b1ba34b7b760c91b606082015260800190565b600060208284031215620016bd57600080fd5b815162000cc28162001446565b600060208284031215620016dd57600080fd5b5051919050565b634e487b7160e01b600052601160045260246000fd5b81810381811115620003c457620003c4620016e4565b634e487b7160e01b600052603260045260246000fd5b6000808335601e198436030181126200173e57600080fd5b83018035915067ffffffffffffffff8211156200175a57600080fd5b6020019150368190038213156200177057600080fd5b9250929050565b828482376000838201600081528351620017968183602088016200138c565b0195945050505050565b600060018201620017b557620017b5620016e4565b5060010190565b608081526000620017d16080830187620013b2565b8281036020840152620017e58187620013b2565b6001600160a01b03959095166040840152505060ff9190911660609091015292915050565b600082516200181e8184602087016200138c565b9190910192915050565b634e487b7160e01b600052603160045260246000fdfe608060405260326000553480156200001657600080fd5b50604051620015923803806200159283398101604081905262000039916200026f565b83836006620000498382620003a4565b506007620000588282620003a4565b5050506200006c826200008b60201b60201c565b506008805460ff191660ff929092169190911790555062000470915050565b600080546200009b600162000129565b1115620000e05760405162461bcd60e51b815260206004820152600f60248201526e1bdddb995c9cc8195e18d959591959608a1b604482015260640160405180910390fd5b620000ed6001836200013a565b6040519091506001600160a01b038316907f994a936646fe87ffe4f1e469d3d6aa417d6b855598397f323de5b449f765f0c390600090a2919050565b600062000134825490565b92915050565b600062000151836001600160a01b03841662000158565b9392505050565b6000818152600183016020526040812054620001a15750815460018181018455600084815260208082209093018490558454848252828601909352604090209190915562000134565b50600062000134565b634e487b7160e01b600052604160045260246000fd5b600082601f830112620001d257600080fd5b81516001600160401b0380821115620001ef57620001ef620001aa565b604051601f8301601f19908116603f011681019082821181831017156200021a576200021a620001aa565b816040528381526020925086838588010111156200023757600080fd5b600091505b838210156200025b57858201830151818301840152908201906200023c565b600093810190920192909252949350505050565b600080600080608085870312156200028657600080fd5b84516001600160401b03808211156200029e57600080fd5b620002ac88838901620001c0565b95506020870151915080821115620002c357600080fd5b50620002d287828801620001c0565b604087015190945090506001600160a01b0381168114620002f257600080fd5b606086015190925060ff811681146200030a57600080fd5b939692955090935050565b600181811c908216806200032a57607f821691505b6020821081036200034b57634e487b7160e01b600052602260045260246000fd5b50919050565b601f8211156200039f57600081815260208120601f850160051c810160208610156200037a5750805b601f850160051c820191505b818110156200039b5782815560010162000386565b5050505b505050565b81516001600160401b03811115620003c057620003c0620001aa565b620003d881620003d1845462000315565b8462000351565b602080601f831160018114620004105760008415620003f75750858301515b600019600386901b1c1916600185901b1785556200039b565b600085815260208120601f198616915b82811015620004415788860151825594840194600190910190840162000420565b5085821015620004605787850151600019600388901b60f8161c191681555b5050505050600190811b01905550565b61111280620004806000396000f3fe608060405234801561001057600080fd5b50600436106101165760003560e01c806342966c68116100a257806395d89b411161007157806395d89b411461023f578063a9059cbb14610247578063ac9650d81461025a578063dd62ed3e1461027a578063ed60c0fc146102b357600080fd5b806342966c68146101db5780637065cb48146101f057806370a082311461020357806379cc67901461022c57600080fd5b806318160ddd116100e957806318160ddd1461018557806323b872dd1461018d5780632f54bf6e146101a0578063313ce567146101b357806340c10f19146101c857600080fd5b806306fdde031461011b578063095ea7b3146101395780630db026221461015c578063173825d914610172575b600080fd5b6101236102c8565b6040516101309190610d1e565b60405180910390f35b61014c610147366004610d48565b61035a565b6040519015158152602001610130565b610164610374565b604051908152602001610130565b61014c610180366004610d72565b610385565b600554610164565b61014c61019b366004610d8d565b6103fe565b61014c6101ae366004610d72565b610424565b60085460405160ff9091168152602001610130565b6101646101d6366004610d48565b610431565b6101ee6101e9366004610dc9565b61046a565b005b61014c6101fe366004610d72565b610477565b610164610211366004610d72565b6001600160a01b031660009081526003602052604090205490565b6101ee61023a366004610d48565b6104ae565b6101236104c7565b61014c610255366004610d48565b6104d6565b61026d610268366004610de2565b6104e4565b6040516101309190610e57565b610164610288366004610eb9565b6001600160a01b03918216600090815260046020908152604080832093909416825291909152205490565b6102bb6105d7565b6040516101309190610eec565b6060600680546102d790610f39565b80601f016020809104026020016040519081016040528092919081815260200182805461030390610f39565b80156103505780601f1061032557610100808354040283529160200191610350565b820191906000526020600020905b81548152906001019060200180831161033357829003601f168201915b5050505050905090565b6000336103688185856105e3565b60019150505b92915050565b600061038060016105f5565b905090565b60006103926001336105ff565b6103b75760405162461bcd60e51b81526004016103ae90610f6d565b60405180910390fd5b6103c2600183610621565b6040519091506001600160a01b038316907f58619076adf5bb0943d100ef88d52d7c3fd691b19d3a9071b555b651fbf418da90600090a2919050565b60003361040c858285610636565b6104178585856106b4565b60019150505b9392505050565b600061036e6001836105ff565b600061043e6001336105ff565b61045a5760405162461bcd60e51b81526004016103ae90610f6d565b6104648383610713565b50919050565b6104743382610749565b50565b60006104846001336105ff565b6104a05760405162461bcd60e51b81526004016103ae90610f6d565b61036e8261077f565b919050565b6104b9823383610636565b6104c38282610749565b5050565b6060600780546102d790610f39565b6000336103688185856106b4565b6040805160008152602081019091526060908267ffffffffffffffff81111561050f5761050f610fdd565b60405190808252806020026020018201604052801561054257816020015b606081526020019060019003908161052d5790505b50915060005b838110156105cf5761059f3086868481811061056657610566610ff3565b90506020028101906105789190611009565b8560405160200161058b93929190611057565b604051602081830303815290604052610814565b8382815181106105b1576105b1610ff3565b602002602001018190525080806105c79061107e565b915050610548565b505092915050565b6060610380600161088a565b6105f08383836001610897565b505050565b600061036e825490565b6001600160a01b0381166000908152600183016020526040812054151561041d565b600061041d836001600160a01b03841661096c565b6001600160a01b0383811660009081526004602090815260408083209386168352929052205460001981146106ae578181101561069f57604051637dc7a0d960e11b81526001600160a01b038416600482015260248101829052604481018390526064016103ae565b6106ae84848484036000610897565b50505050565b6001600160a01b0383166106de57604051634b637e8f60e11b8152600060048201526024016103ae565b6001600160a01b0382166107085760405163ec442f0560e01b8152600060048201526024016103ae565b6105f0838383610a5f565b6001600160a01b03821661073d5760405163ec442f0560e01b8152600060048201526024016103ae565b6104c360008383610a5f565b6001600160a01b03821661077357604051634b637e8f60e11b8152600060048201526024016103ae565b6104c382600083610a5f565b6000805461078d60016105f5565b11156107cd5760405162461bcd60e51b815260206004820152600f60248201526e1bdddb995c9cc8195e18d959591959608a1b60448201526064016103ae565b6107d8600183610b89565b6040519091506001600160a01b038316907f994a936646fe87ffe4f1e469d3d6aa417d6b855598397f323de5b449f765f0c390600090a2919050565b6060600080846001600160a01b0316846040516108319190611097565b600060405180830381855af49150503d806000811461086c576040519150601f19603f3d011682016040523d82523d6000602084013e610871565b606091505b5091509150610881858383610b9e565b95945050505050565b6060600061041d83610bfa565b6001600160a01b0384166108c15760405163e602df0560e01b8152600060048201526024016103ae565b6001600160a01b0383166108eb57604051634a1406b160e11b8152600060048201526024016103ae565b6001600160a01b03808516600090815260046020908152604080832093871683529290522082905580156106ae57826001600160a01b0316846001600160a01b03167f8c5be1e5ebec7d5bd14f71427d1e84f3dd0314c0f7b2291e5b200ac8c7c3b9258460405161095e91815260200190565b60405180910390a350505050565b60008181526001830160205260408120548015610a55576000610990600183610fca565b85549091506000906109a490600190610fca565b9050808214610a095760008660000182815481106109c4576109c4610ff3565b90600052602060002001549050808760000184815481106109e7576109e7610ff3565b6000918252602080832090910192909255918252600188019052604090208390555b8554869080610a1a57610a1a6110b3565b60019003818190600052602060002001600090559055856001016000868152602001908152602001600020600090556001935050505061036e565b600091505061036e565b6001600160a01b038316610a8a578060056000828254610a7f91906110c9565b90915550610afc9050565b6001600160a01b03831660009081526003602052604090205481811015610add5760405163391434e360e21b81526001600160a01b038516600482015260248101829052604481018390526064016103ae565b6001600160a01b03841660009081526003602052604090209082900390555b6001600160a01b038216610b1857600580548290039055610b37565b6001600160a01b03821660009081526003602052604090208054820190555b816001600160a01b0316836001600160a01b03167fddf252ad1be2c89b69c2b068fc378daa952ba7f163c4a11628f55a4df523b3ef83604051610b7c91815260200190565b60405180910390a3505050565b600061041d836001600160a01b038416610c56565b606082610bb357610bae82610ca5565b61041d565b8151158015610bca57506001600160a01b0384163b155b15610bf357604051639996b31560e01b81526001600160a01b03851660048201526024016103ae565b508061041d565b606081600001805480602002602001604051908101604052809291908181526020018280548015610c4a57602002820191906000526020600020905b815481526020019060010190808311610c36575b50505050509050919050565b6000818152600183016020526040812054610c9d5750815460018181018455600084815260208082209093018490558454848252828601909352604090209190915561036e565b50600061036e565b805115610cb55780518082602001fd5b604051630a12f52160e11b815260040160405180910390fd5b60005b83811015610ce9578181015183820152602001610cd1565b50506000910152565b60008151808452610d0a816020860160208601610cce565b601f01601f19169290920160200192915050565b60208152600061041d6020830184610cf2565b80356001600160a01b03811681146104a957600080fd5b60008060408385031215610d5b57600080fd5b610d6483610d31565b946020939093013593505050565b600060208284031215610d8457600080fd5b61041d82610d31565b600080600060608486031215610da257600080fd5b610dab84610d31565b9250610db960208501610d31565b9150604084013590509250925092565b600060208284031215610ddb57600080fd5b5035919050565b60008060208385031215610df557600080fd5b823567ffffffffffffffff80821115610e0d57600080fd5b818501915085601f830112610e2157600080fd5b813581811115610e3057600080fd5b8660208260051b8501011115610e4557600080fd5b60209290920196919550909350505050565b6000602080830181845280855180835260408601915060408160051b870101925083870160005b82811015610eac57603f19888603018452610e9a858351610cf2565b94509285019290850190600101610e7e565b5092979650505050505050565b60008060408385031215610ecc57600080fd5b610ed583610d31565b9150610ee360208401610d31565b90509250929050565b6020808252825182820181905260009190848201906040850190845b81811015610f2d5783516001600160a01b031683529284019291840191600101610f08565b50909695505050505050565b600181811c90821680610f4d57607f821691505b60208210810361046457634e487b7160e01b600052602260045260246000fd5b60208082526027908201527f4f6e6c79206f776e65722063616e20657865637574652074686973207472616e60408201526639b0b1ba34b7b760c91b606082015260800190565b634e487b7160e01b600052601160045260246000fd5b8181038181111561036e5761036e610fb4565b634e487b7160e01b600052604160045260246000fd5b634e487b7160e01b600052603260045260246000fd5b6000808335601e1984360301811261102057600080fd5b83018035915067ffffffffffffffff82111561103b57600080fd5b60200191503681900382131561105057600080fd5b9250929050565b828482376000838201600081528351611074818360208801610cce565b0195945050505050565b60006001820161109057611090610fb4565b5060010190565b600082516110a9818460208701610cce565b9190910192915050565b634e487b7160e01b600052603160045260246000fd5b8082018082111561036e5761036e610fb456fea26469706673582212205423b611084307723d79b8e50124330f5bc9a8f364efcdc98263ecc85abb5ea464736f6c63430008140033a2646970667358221220a8fe32d4594fdb0ee68901de7a68bf0dfe3aa88887d43b594c3bc07eb13ca6f564736f6c63430008140033",
  "linkReferences": {},
  "deployedLinkReferences": {}
}